:10000000FAEF03F00000000000EF00F00000000035
:0A0010000000000000000000F3D71C
:0E001C00C70E0D6E0D2EFED700000000120064
:10002A00560E0C6EB50E0D6E0D2EFED70C2EFCD78D
:06003A00000000001200AE
:0E004000030E0D6E0D2EFED700000000120004
:10004E00000173BF02D0839E01D0838E73BD02D098
:10005E00839C01D0838C73BB02D0839A01D0838A98
:10006E0073B902D0839801D0838863B102D08384A0
:10007E0001D083948386DDDF839673B702D0839E8F
:10008E0001D0838E73B502D0839C01D0838C73B361
:10009E0002D0839A01D0838A73B102D0839801D0A3
:1000AE00838863B102D0838401D083948386C1DFB9
:0E00BE00839663A102D0B2DF01D0A9DF120049
:1000CC000450085E0550D8A0053C095E0650D8A027
:1000DC00063C0A5E0750D8A0073C0B5E0336070EA1
:1000EC000C6E0334083609360A360B36045003A05E
:1000FC000ED0085E0550D8A0053C095E0650D8A06D
:10010C00063C0A5E0750D8A0073C0B5E0DD00826B3
:10011C000550D8B0053C09260650D8B0063C0A2636
:10012C000750D8B0073C0B2603360C2EDAD7023416
:10013C00083609360A360B36045003A00ED0085E7A
:10014C000550D8A0053C095E0650D8A0063C0A5EB6
:10015C000750D8A0073C0B5E0DD008260550D8B030
:10016C00053C09260650D8B0063C0A260750D8B0E4
:10017C00073C0B260236070E0C6E02340836093685
:10018C000A360B36045002A00ED0085E0550D8A0DB
:10019C00053C095E0650D8A0063C0A5E0750D8A064
:1001AC00073C0B5E0DD008260550D8B0053C09263F
:1001BC000650D8B0063C0A260750D8B0073C0B2690
:1001CC0002360C2EDAD70134083609360A360B36CD
:1001DC00045002A00ED0085E0550D8A0053C095E64
:1001EC000650D8A0063C0A5E0750D8A0073C0B5E10
:1001FC000DD008260550D8B0053C09260650D8B0BD
:10020C00063C0A260750D8B0073C0B260136070ED1
:10021C000C6E0134083609360A360B36045001A030
:10022C000ED0085E0550D8A0053C095E0650D8A03B
:10023C00063C0A5E0750D8A0073C0B5E0DD0082682
:10024C000550D8B0053C09260650D8B0063C0A2605
:10025C000750D8B0073C0B2601360C2EDAD70034E9
:10026C00083609360A360B36045001A00ED0085E4B
:10027C000550D8A0053C095E0650D8A0063C0A5E85
:10028C000750D8A0073C0B5E0DD008260550D8B0FF
:10029C00053C09260650D8B0063C0A260750D8B0B3
:1002AC00073C0B260036070E0C6E00340836093658
:1002BC000A360B36045000A00ED0085E0550D8A0AC
:1002CC00053C095E0650D8A0063C0A5E0750D8A033
:1002DC00073C0B5E0DD008260550D8B0053C09260E
:1002EC000650D8B0063C0A260750D8B0073C0B265F
:1002FC0000360C2EDAD700B00ED00450082605506C
:10030C00D8B0053C09260650D8B0063C0A26075042
:08031C00D8B0073C0B261200CB
:100324000B1E0A1E091E081E082AD8B4092AD8B4AE
:080334000A2AD8B40B2A1200BA
:10033C000450000A12E10550000A0FE10650000AB1
:10034C000CE10750000A09E1FF0E006EFF0E016E72
:10035C00FF0E026E7F0E036E97D00C6A07BE0C2A3E
:10036C000D6A0B6A0A6A096A086A035002100110C6
:10037C000010D8B484D0035007180E6E0EBE0D1E9C
:10038C0007AE0BD0041E051E061E071E042AD8B489
:10039C00052AD8B4062AD8B4072A03AE0BD0001EFF
:1003AC00011E021E031E002AD8B4012AD8B4022A48
:1003BC00D8B4032A035007100E6E0EBE1CD080DE7C
:1003CC000CBE36D00DAE5BD0001E011E021E031EED
:1003DC00002AD8B4012AD8B4022AD8B4032A081E99
:1003EC00091E0A1E0B1E082AD8B4092AD8B40A2AD8
:1003FC00D8B40B2A44D007AE15D003BE0DD0035091
:10040C000B6E02500A6E0150096E0050086E036AA2
:10041C00026A016A006AD6D7036A026A016A006A34
:10042C00002A000C031E021E011E001E0C8EC7D7D4
:10043C00082AD8B4092AD8B40A2AD8B40B2A0450EA
:10044C00085CD8A4BFD70550095CD8A4BBD706500C
:10045C000A5CD8A4B7D707500B5CD8A4B3D70B6AE7
:10046C000A6A096A086A002AD8B4012AD8B4022A8E
:10047C00D8B4032A03AEA6D70E6A0E88FF0C0E6AF8
:0A048C000CA001D049DF000F1200A0
:10049600220E0C6E086A096A0A6A0B6A0C06D8B440
:1004A6001FD0D8900B320A32093208320332023298
:1004B60001320032D8A0F2D70C06D8B409D00450C5
:1004C60008260550092206500A2207500B22EAD7B1
:1004D600045008260550092206500A2207500B220E
:0204E600120002
:1004E800086A096A100E0C6E013408360936045081
:1004F800085E0550D8A0053C095ED8B007D0045066
:1005080008260550D8B0053C0926D8900036013693
:060518000C2EEAD71200D0
:0E051E000001639172C073F093DD63811200DF
:10052C00959695949598959A959C959E839683947B
:10053C00839E839C839A839872DD71DD70DD838A40
:10054C008388838677DD83966ADD838673DD839665
:10055C0066DD83866FDD839662DD839883866ADD34
:10056C0083965DDD838666DD8396839A838E838690
:10057C0061DD839654DD839E838883865BDD839661
:10058C008398838657DD83964ADD838653DD839675
:10059C00838883864FDD839642DD839883864ADD8C
:1005AC008396838E838C838A8388838643DD8396AC
:0805BC0036DD0001638112002D
:0805C400CD6ACF6ACE6A120075
:1005CC0000016D6B6D516B25E96E000E6C21EA6EAE
:1005DC00EE520BE06D516B25E96E000E6C21EA6E4C
:0C05EC00EECF72F096DF6D2BEDD7120001
:1005F800070EB46E956A010E936E816ADFDF92DF93
:080608000C0E736F20DD1200DF
:100610000900F5CFE6FF0006FBE10106F9E1120053
:1006200000016C6B6D6B6E6B6F6B6B6B400E6B5D7B
:1006300043E2818E270E0D6E0D2EFED700000000C6
:10064000819E81B001D0FDD7CD8081A001D0FDD7A2
:10065000CD90CFCF01F0006ACE500026000E0122CF
:1006600000C027F001C028F0000E026E036E220EBB
:10067000046E000E056E066E076E0DDFC80E046E6A
:10068000000E056E066E076E59DE005000016C27E5
:1006900001506D2302506E2303506F23CF6ACE6A40
:1006A000276A286A4E0E0C6EEB0E0D6E0D2EFED7CD
:1006B0000C2EFCD76B2BBAD7060E046E6CC000F064
:1006C0006DC001F06EC002F06FC003F0045009E08D
:1006D0000332023201320032039E03BC038EFF0F4D
:0406E000F6D7120037
:1006E40010D0800E00016B6F1AD0C00E6B6F17D044
:1006F400940E6B6F14D0D40E6B6F11D0800E6B6F91
:100704000ED000016B51010AECE06B51020AEDE0DE
:100714006B51030AEDE06B51040AEDE0EFD76C0571
:10072400006E6B51002600C06BF000C073F08DDCCE
:1007340063916F6B6F516D25E96E000E6E21EA6E49
:10074400EE520BE06F516D25E96E000E6E21EA6EDC
:0E075400EECF72F0E2DE6F2BEDD76381120064
:1007620000016F6B050E6F5D0AE26F516D25E16E40
:10077200000E6E21E26E200EE66E6F2BF3D76F51E4
:100782006D25E16E000E6E21E26EE66A6F076F5113
:100792006D25706F000E6E21716F0A0E046E000ED1
:1007A200056E6BC000F06CC001F09DDE08C000F069
:1007B20009C001F0300E002670C0E1FF71C0E2FFF7
:1007C20000C0E6FF0A0E046E000E056E6BC000F05C
:1007D2006CC001F088DE00C06BF001C06CF0000E4E
:1007E200011802E1000E001801E102D06F07CFD715
:0207F2001200F3
:1007F40097EC04F0FFDE010E6B6F010E6C6F290E97
:100804006D6F000E6E6F6CDF020E6B6F010E6C6FFE
:10081400190E6D6F000E6E6F63DF020E0A6EAB0E63
:100824000B6E220E0C6EC90E0D6E0D2EFED70C2E05
:10083400FCD70B2EFAD70A2EF8D7010E736F05DCFE
:10084400010E6B6F040E6C6F4B0E6D6F000E6E6FAE
:1008540047DF020E6B6F020E6C6F550E6D6F000E4C
:100864006E6F3EDF030E0A6E610E0B6EC30E0C6ECE
:100874008E0E0D6E0D2EFED70C2EFCD70B2EFAD736
:100884000A2EF8D70000010E736F27EC00F0010E5A
:100894006B6F020E6C6F3C0E6D6F000E6E6F20DF7F
:1008A400BDDE00C03AF001C03BF000C06BF001C0F7
:1008B4006CF0640E6D6F000E6E6F51DF020E6B6F85
:1008C400010E6C6F640E6D6F000E6E6F09DF150EF6
:0C08D4006B6F000E6C6F78DEE3D7FFD76F
:10092E0010EE15F04E0E006E010E016EE00EF66E1C
:0E093E00080EF76E000EF86E08EC03F01200C3
:0408E000206D6D001A
:0E08E40020202020787878787878787878004E
:0208F200000004
:1008F4007878787878787878787878787878787874
:0109040000F2
:020905000000F0
:0F0907004F4C43554C454E204D455341464500FE
:0A09160023594150494D4349230085
:0E09200020454D5245204D4554494E2E210094
:020000040030CA
:0E000000240C1F1EFF8381FF0FC00FE00F4076
:00000001FF
